{
  "contractName": "DNARental",
  "abi": [
    {
      "inputs": [],
      "stateMutability": "nonpayable",
      "type": "constructor"
    },
    {
      "anonymous": false,
      "inputs": [
        {
          "indexed": false,
          "internalType": "uint256",
          "name": "recordId",
          "type": "uint256"
        }
      ],
      "name": "LogDNARented",
      "type": "event"
    },
    {
      "anonymous": false,
      "inputs": [
        {
          "indexed": false,
          "internalType": "uint256",
          "name": "recordId",
          "type": "uint256"
        }
      ],
      "name": "LogRecordAdded",
      "type": "event"
    },
    {
      "anonymous": false,
      "inputs": [
        {
          "indexed": false,
          "internalType": "uint256",
          "name": "recordId",
          "type": "uint256"
        }
      ],
      "name": "LogRecordFetched",
      "type": "event"
    },
    {
      "anonymous": false,
      "inputs": [
        {
          "indexed": false,
          "internalType": "uint256",
          "name": "recordId",
          "type": "uint256"
        }
      ],
      "name": "LogRecordFound",
      "type": "event"
    },
    {
      "anonymous": false,
      "inputs": [
        {
          "indexed": true,
          "internalType": "address",
          "name": "previousOwner",
          "type": "address"
        },
        {
          "indexed": true,
          "internalType": "address",
          "name": "newOwner",
          "type": "address"
        }
      ],
      "name": "OwnershipTransferred",
      "type": "event"
    },
    {
      "inputs": [
        {
          "internalType": "uint256",
          "name": "",
          "type": "uint256"
        }
      ],
      "name": "dnaInventory",
      "outputs": [
        {
          "internalType": "uint256",
          "name": "recordId",
          "type": "uint256"
        },
        {
          "internalType": "uint256",
          "name": "age",
          "type": "uint256"
        },
        {
          "internalType": "uint256",
          "name": "price",
          "type": "uint256"
        },
        {
          "internalType": "enum DNARental.Sex",
          "name": "sex",
          "type": "uint8"
        },
        {
          "internalType": "enum DNARental.State",
          "name": "state",
          "type": "uint8"
        },
        {
          "internalType": "string",
          "name": "URI",
          "type": "string"
        },
        {
          "internalType": "address payable",
          "name": "owner",
          "type": "address"
        }
      ],
      "stateMutability": "view",
      "type": "function"
    },
    {
      "inputs": [],
      "name": "owner",
      "outputs": [
        {
          "internalType": "address",
          "name": "",
          "type": "address"
        }
      ],
      "stateMutability": "view",
      "type": "function"
    },
    {
      "inputs": [],
      "name": "renounceOwnership",
      "outputs": [],
      "stateMutability": "nonpayable",
      "type": "function"
    },
    {
      "inputs": [
        {
          "internalType": "address",
          "name": "newOwner",
          "type": "address"
        }
      ],
      "name": "transferOwnership",
      "outputs": [],
      "stateMutability": "nonpayable",
      "type": "function"
    },
    {
      "inputs": [
        {
          "internalType": "uint256",
          "name": "_age",
          "type": "uint256"
        },
        {
          "internalType": "enum DNARental.Sex",
          "name": "_sex",
          "type": "uint8"
        },
        {
          "internalType": "string",
          "name": "_URI",
          "type": "string"
        }
      ],
      "name": "addDNARecord",
      "outputs": [
        {
          "internalType": "uint256",
          "name": "",
          "type": "uint256"
        }
      ],
      "stateMutability": "nonpayable",
      "type": "function"
    },
    {
      "inputs": [
        {
          "internalType": "uint256",
          "name": "_age",
          "type": "uint256"
        },
        {
          "internalType": "enum DNARental.Sex",
          "name": "_sex",
          "type": "uint8"
        }
      ],
      "name": "findDNARecord",
      "outputs": [
        {
          "internalType": "uint256",
          "name": "",
          "type": "uint256"
        }
      ],
      "stateMutability": "nonpayable",
      "type": "function"
    },
    {
      "inputs": [
        {
          "internalType": "uint256",
          "name": "recordId",
          "type": "uint256"
        }
      ],
      "name": "fetchDNARecord",
      "outputs": [
        {
          "internalType": "uint256",
          "name": "age",
          "type": "uint256"
        },
        {
          "internalType": "enum DNARental.Sex",
          "name": "sex",
          "type": "uint8"
        },
        {
          "internalType": "string",
          "name": "uri",
          "type": "string"
        }
      ],
      "stateMutability": "nonpayable",
      "type": "function"
    },
    {
      "inputs": [
        {
          "internalType": "uint256",
          "name": "recordId",
          "type": "uint256"
        }
      ],
      "name": "rentDNARecord",
      "outputs": [],
      "stateMutability": "payable",
      "type": "function"
    }
  ],
  "bytecode": "0x6080604052600060015534801561001557600080fd5b5061003261002761003760201b60201c565b61003f60201b60201c565b610103565b600033905090565b60008060009054906101000a900473ffffffffffffffffffffffffffffffffffffffff169050816000806101000a81548173ffffffffffffffffffffffffffffffffffffffff021916908373ffffffffffffffffffffffffffffffffffffffff1602179055508173ffffffffffffffffffffffffffffffffffffffff168173ffffffffffffffffffffffffffffffffffffffff167f8be0079c531659141344cd1fd0a4f28419497f9722a3daafe3b4186f6b6457e060405160405180910390a35050565b611494806101126000396000f3fe60806040526004361061007b5760003560e01c80638f7a2a0f1161004e5780638f7a2a0f14610144578063a686ec6714610181578063f2fde38b1461019d578063fad6c971146101c65761007b565b80632c07a868146100805780634527332a146100c3578063715018a6146101025780638da5cb5b14610119575b600080fd5b34801561008c57600080fd5b506100a760048036038101906100a29190610d83565b610203565b6040516100ba979695949392919061108d565b60405180910390f35b3480156100cf57600080fd5b506100ea60048036038101906100e59190610d83565b610307565b6040516100f99392919061104f565b60405180910390f35b34801561010e57600080fd5b50610117610471565b005b34801561012557600080fd5b5061012e6104f9565b60405161013b9190610fb9565b60405180910390f35b34801561015057600080fd5b5061016b60048036038101906101669190610dac565b610522565b6040516101789190611034565b60405180910390f35b61019b60048036038101906101969190610d83565b610652565b005b3480156101a957600080fd5b506101c460048036038101906101bf9190610d5a565b610766565b005b3480156101d257600080fd5b506101ed60048036038101906101e89190610de8565b61085e565b6040516101fa9190611034565b60405180910390f35b60026020528060005260406000206000915090508060000154908060010154908060020154908060030160009054906101000a900460ff16908060030160019054906101000a900460ff169080600401805461025e906112b0565b80601f016020809104026020016040519081016040528092919081815260200182805461028a906112b0565b80156102d75780601f106102ac576101008083540402835291602001916102d7565b820191906000526020600020905b8154815290600101906020018083116102ba57829003601f168201915b5050505050908060050160009054906101000a900473ffffffffffffffffffffffffffffffffffffffff16905087565b600080606083600154811115610352576040517f08c379a000000000000000000000000000000000000000000000000000000000815260040161034990610ff4565b60405180910390fd5b600260008681526020019081526020016000206001015493506002600086815260200190815260200160002060030160009054906101000a900460ff1692506002600086815260200190815260200160002060040180546103b2906112b0565b80601f01602080910402602001604051908101604052809291908181526020018280546103de906112b0565b801561042b5780601f106104005761010080835404028352916020019161042b565b820191906000526020600020905b81548152906001019060200180831161040e57829003601f168201915b505050505091507f61499239702a2bcad45a154d84797f460d0935b8751776d3127f3d65c3e9e4a4856040516104619190611034565b60405180910390a1509193909250565b610479610b44565b73ffffffffffffffffffffffffffffffffffffffff166104976104f9565b73ffffffffffffffffffffffffffffffffffffffff16146104ed576040517f08c379a00000000000000000000000000000000000000000000000000000000081526004016104e490611014565b60405180910390fd5b6104f76000610b4c565b565b60008060009054906101000a900473ffffffffffffffffffffffffffffffffffffffff16905090565b600080600090506000600190505b6001548111610647578460026000838152602001908152602001600020600101541480156105f05750836001811115610592577f4e487b7100000000000000000000000000000000000000000000000000000000600052602160045260246000fd5b6002600083815260200190815260200160002060030160009054906101000a900460ff1660018111156105ee577f4e487b7100000000000000000000000000000000000000000000000000000000600052602160045260246000fd5b145b15610634577fcf48d9622d1433bfebe8f05c0a747e1da7ff96d231edc287fe104d52f96950c9816040516106249190611034565b60405180910390a1809150610647565b808061063f906112e2565b915050610530565b508091505092915050565b80600154811115610698576040517f08c379a000000000000000000000000000000000000000000000000000000000815260040161068f90610ff4565b60405180910390fd5b6002600083815260200190815260200160002060050160009054906101000a900473ffffffffffffffffffffffffffffffffffffffff1673ffffffffffffffffffffffffffffffffffffffff166108fc60026000858152602001908152602001600020600201549081150290604051600060405180830381858888f1935050505015801561072a573d6000803e3d6000fd5b507fc3d386407d74d075ed13b44ad4aa35ed80b97e78aebf5ef5d29c29bc091f2a278260405161075a9190611034565b60405180910390a15050565b61076e610b44565b73ffffffffffffffffffffffffffffffffffffffff1661078c6104f9565b73ffffffffffffffffffffffffffffffffffffffff16146107e2576040517f08c379a00000000000000000000000000000000000000000000000000000000081526004016107d990611014565b60405180910390fd5b600073ffffffffffffffffffffffffffffffffffffffff168173ffffffffffffffffffffffffffffffffffffffff161415610852576040517f08c379a000000000000000000000000000000000000000000000000000000000815260040161084990610fd4565b60405180910390fd5b61085b81610b4c565b50565b6000610868610b44565b73ffffffffffffffffffffffffffffffffffffffff166108866104f9565b73ffffffffffffffffffffffffffffffffffffffff16146108dc576040517f08c379a00000000000000000000000000000000000000000000000000000000081526004016108d390611014565b60405180910390fd5b6000600180546108ec9190611180565b905060006040518060e0016040528083815260200187815260200160058152602001866001811115610947577f4e487b7100000000000000000000000000000000000000000000000000000000600052602160045260246000fd5b815260200160006003811115610986577f4e487b7100000000000000000000000000000000000000000000000000000000600052602160045260246000fd5b81526020018581526020013373ffffffffffffffffffffffffffffffffffffffff1681525090508160018190555080600260008360000151815260200190815260200160002060008201518160000155602082015181600101556040820151816002015560608201518160030160006101000a81548160ff02191690836001811115610a3b577f4e487b7100000000000000000000000000000000000000000000000000000000600052602160045260246000fd5b021790555060808201518160030160016101000a81548160ff02191690836003811115610a91577f4e487b7100000000000000000000000000000000000000000000000000000000600052602160045260246000fd5b021790555060a0820151816004019080519060200190610ab2929190610c10565b5060c08201518160050160006101000a81548173ffffffffffffffffffffffffffffffffffffffff021916908373ffffffffffffffffffffffffffffffffffffffff1602179055509050507f08dc8227168ac5fc341146d5eb3d89988d829fb80e2be075e6c79bb37299ab0c8160000151604051610b309190611034565b60405180910390a181925050509392505050565b600033905090565b60008060009054906101000a900473ffffffffffffffffffffffffffffffffffffffff169050816000806101000a81548173ffffffffffffffffffffffffffffffffffffffff021916908373ffffffffffffffffffffffffffffffffffffffff1602179055508173ffffffffffffffffffffffffffffffffffffffff168173ffffffffffffffffffffffffffffffffffffffff167f8be0079c531659141344cd1fd0a4f28419497f9722a3daafe3b4186f6b6457e060405160405180910390a35050565b828054610c1c906112b0565b90600052602060002090601f016020900481019282610c3e5760008555610c85565b82601f10610c5757805160ff1916838001178555610c85565b82800160010185558215610c85579182015b82811115610c84578251825591602001919060010190610c69565b5b509050610c929190610c96565b5090565b5b80821115610caf576000816000905550600101610c97565b5090565b6000610cc6610cc184611134565b611103565b905082815260208101848484011115610cde57600080fd5b610ce984828561126e565b509392505050565b600081359050610d0081611420565b92915050565b600081359050610d1581611437565b92915050565b600082601f830112610d2c57600080fd5b8135610d3c848260208601610cb3565b91505092915050565b600081359050610d5481611447565b92915050565b600060208284031215610d6c57600080fd5b6000610d7a84828501610cf1565b91505092915050565b600060208284031215610d9557600080fd5b6000610da384828501610d45565b91505092915050565b60008060408385031215610dbf57600080fd5b6000610dcd85828601610d45565b9250506020610dde85828601610d06565b9150509250929050565b600080600060608486031215610dfd57600080fd5b6000610e0b86828701610d45565b9350506020610e1c86828701610d06565b925050604084013567ffffffffffffffff811115610e3957600080fd5b610e4586828701610d1b565b9150509250925092565b610e58816111e8565b82525050565b610e67816111d6565b82525050565b610e768161124a565b82525050565b610e858161125c565b82525050565b6000610e9682611164565b610ea0818561116f565b9350610eb081856020860161127d565b610eb9816113e7565b840191505092915050565b6000610ed160268361116f565b91507f4f776e61626c653a206e6577206f776e657220697320746865207a65726f206160008301527f64647265737300000000000000000000000000000000000000000000000000006020830152604082019050919050565b6000610f3760168361116f565b91507f5265636f726420646f6573206e6f742065786973742e000000000000000000006000830152602082019050919050565b6000610f7760208361116f565b91507f4f776e61626c653a2063616c6c6572206973206e6f7420746865206f776e65726000830152602082019050919050565b610fb381611240565b82525050565b6000602082019050610fce6000830184610e5e565b92915050565b60006020820190508181036000830152610fed81610ec4565b9050919050565b6000602082019050818103600083015261100d81610f2a565b9050919050565b6000602082019050818103600083015261102d81610f6a565b9050919050565b60006020820190506110496000830184610faa565b92915050565b60006060820190506110646000830186610faa565b6110716020830185610e6d565b81810360408301526110838184610e8b565b9050949350505050565b600060e0820190506110a2600083018a610faa565b6110af6020830189610faa565b6110bc6040830188610faa565b6110c96060830187610e6d565b6110d66080830186610e7c565b81810360a08301526110e88185610e8b565b90506110f760c0830184610e4f565b98975050505050505050565b6000604051905081810181811067ffffffffffffffff8211171561112a576111296113b8565b5b8060405250919050565b600067ffffffffffffffff82111561114f5761114e6113b8565b5b601f19601f8301169050602081019050919050565b600081519050919050565b600082825260208201905092915050565b600061118b82611240565b915061119683611240565b9250827fffffffffffffffffffffffffffffffffffffffffffffffffffffffffffffffff038211156111cb576111ca61132b565b5b828201905092915050565b60006111e182611220565b9050919050565b60006111f382611220565b9050919050565b6000819050611208826113f8565b919050565b600081905061121b8261140c565b919050565b600073ffffffffffffffffffffffffffffffffffffffff82169050919050565b6000819050919050565b6000611255826111fa565b9050919050565b60006112678261120d565b9050919050565b82818337600083830152505050565b60005b8381101561129b578082015181840152602081019050611280565b838111156112aa576000848401525b50505050565b600060028204905060018216806112c857607f821691505b602082108114156112dc576112db611389565b5b50919050565b60006112ed82611240565b91507fffffffffffffffffffffffffffffffffffffffffffffffffffffffffffffffff8214156113205761131f61132b565b5b600182019050919050565b7f4e487b7100000000000000000000000000000000000000000000000000000000600052601160045260246000fd5b7f4e487b7100000000000000000000000000000000000000000000000000000000600052602160045260246000fd5b7f4e487b7100000000000000000000000000000000000000000000000000000000600052602260045260246000fd5b7f4e487b7100000000000000000000000000000000000000000000000000000000600052604160045260246000fd5b6000601f19601f8301169050919050565b600281106114095761140861135a565b5b50565b6004811061141d5761141c61135a565b5b50565b611429816111d6565b811461143457600080fd5b50565b6002811061144457600080fd5b50565b61145081611240565b811461145b57600080fd5b5056fea26469706673582212200560895a169a6e7cfb2cf5e20a479e2ef03c1069449c2cb04b1edb0f1f45549264736f6c63430008000033",
  "immutableReferences": {},
  "source": "// SPDX-License-Identifier: MIT\r\npragma solidity >=0.5.0;\r\n\r\nimport \"@openzeppelin/contracts/access/Ownable.sol\";\r\n\r\n/// @title Contract for 'renting' DNA data\r\n/// @author Craig McQueen\r\n/// @notice It has been 20 years since I've coded, please excuse my rustiness\r\n\r\ncontract DNARental is Ownable {\r\n    \r\n    /// @notice Emmitted when a record is added.\r\n    /// @param recordId record id\r\n    event LogRecordAdded(uint recordId);\r\n\r\n    /// @notice Emmitted when a record is found.\r\n    /// @param recordId record id\r\n    event LogRecordFetched(uint recordId);\r\n\r\n\r\n    /// @notice Emmitted when a record is found.\r\n    /// @param recordId record id\r\n    event LogRecordFound(uint recordId);\r\n\r\n    /// @notice Emmitted when a record is found.\r\n    /// @param recordId record id\r\n    event LogDNARented(uint recordId);\r\n\r\n    // <enum State: ForSale, Sold, Shipped, Received>\r\n    enum State { ForSale, Sold, Shipped, Received } // Enum\r\n    enum Sex { MALE, FEMALE } // Enum\r\n\r\n    struct DNARecord {\r\n        uint    recordId;\r\n        uint    age;\r\n        uint    price;\r\n        Sex     sex;\r\n        State   state;\r\n        string  URI;\r\n        address payable owner;\r\n        }\r\n\r\n    struct Rental {\r\n        uint timestamp;\r\n        uint amount;\r\n        address renter;\r\n    }\r\n    uint    private recordCounter = 0;\r\n\r\n \r\n    mapping(uint => DNARecord) public dnaInventory;\r\n\r\n    modifier onlyIfRecordExists(uint recordId) {\r\n    require( recordId <= recordCounter , \r\n        \"Record does not exist.\");\r\n    _;\r\n  }\r\n\r\n    constructor()  {}\r\n\r\n    /// @notice Adds a record to a given property id\r\n    /// @dev Check for exact payment sum to avoid having to send ETH back to sender\r\n \r\n    function addDNARecord( uint _age, Sex _sex, \r\n        string memory _URI \r\n        ) \r\n    public onlyOwner returns (uint) {\r\n        uint newRecordId = recordCounter + 1;\r\n\r\n        DNARecord memory newRecord = DNARecord({\r\n            recordId:   newRecordId,\r\n            age: _age,\r\n            sex: _sex,\r\n            price: 5,\r\n            state: State.ForSale,\r\n            URI: _URI,\r\n            owner: payable(msg.sender)\r\n        });\r\n\r\n        recordCounter = newRecordId;\r\n\r\n        dnaInventory[newRecord.recordId] = newRecord;\r\n        emit LogRecordAdded(newRecord.recordId); \r\n        return newRecordId;\r\n    }\r\n\r\n    function findDNARecord( uint _age, Sex _sex )\r\n    public returns (uint256) {\r\n        uint    returnValue = 0;\r\n\r\n        for ( uint i=1 ; i <= recordCounter; i++ ) {\r\n            if ( dnaInventory[i].age == _age && dnaInventory[i].sex == _sex )\r\n            {\r\n                emit LogRecordFound( i );\r\n                returnValue = i;\r\n                break;\r\n            }\r\n        }\r\n        return( returnValue );\r\n    }\r\n\r\n  \r\n\r\n    function fetchDNARecord( uint recordId ) public \r\n    onlyIfRecordExists(recordId)  \r\n    returns ( uint age, Sex sex, string memory uri) {\r\n        age = dnaInventory[recordId].age;\r\n        sex = dnaInventory[recordId].sex;\r\n        uri = dnaInventory[recordId].URI;\r\n        emit LogRecordFetched(recordId);\r\n        return (age, sex, uri );\r\n    } \r\n\r\n    function rentDNARecord( uint recordId ) public payable onlyIfRecordExists( recordId ) {\r\n\r\n        dnaInventory[recordId].owner.transfer(dnaInventory[recordId].price);\r\n        emit LogDNARented( recordId );\r\n    }\r\n}",
  "sourcePath": "C:\\Users\\craig\\projects\\blockchain-developer-bootcamp-final-project\\contracts\\DNARental.sol",
  "compiler": {
    "name": "solc",
    "version": "0.8.0+commit.c7dfd78e.Emscripten.clang"
  },
  "schemaVersion": "3.4.3",
  "updatedAt": "2021-11-20T17:28:38.247Z",
  "devdoc": {
    "author": "Craig McQueen",
    "events": {
      "LogDNARented(uint256)": {
        "params": {
          "recordId": "record id"
        }
      },
      "LogRecordAdded(uint256)": {
        "params": {
          "recordId": "record id"
        }
      },
      "LogRecordFetched(uint256)": {
        "params": {
          "recordId": "record id"
        }
      },
      "LogRecordFound(uint256)": {
        "params": {
          "recordId": "record id"
        }
      }
    },
    "kind": "dev",
    "methods": {
      "addDNARecord(uint256,uint8,string)": {
        "details": "Check for exact payment sum to avoid having to send ETH back to sender"
      },
      "owner()": {
        "details": "Returns the address of the current owner."
      },
      "renounceOwnership()": {
        "details": "Leaves the contract without owner. It will not be possible to call `onlyOwner` functions anymore. Can only be called by the current owner. NOTE: Renouncing ownership will leave the contract without an owner, thereby removing any functionality that is only available to the owner."
      },
      "transferOwnership(address)": {
        "details": "Transfers ownership of the contract to a new account (`newOwner`). Can only be called by the current owner."
      }
    },
    "title": "Contract for 'renting' DNA data",
    "version": 1
  },
  "userdoc": {
    "events": {
      "LogDNARented(uint256)": {
        "notice": "Emmitted when a record is found."
      },
      "LogRecordAdded(uint256)": {
        "notice": "Emmitted when a record is added."
      },
      "LogRecordFetched(uint256)": {
        "notice": "Emmitted when a record is found."
      },
      "LogRecordFound(uint256)": {
        "notice": "Emmitted when a record is found."
      }
    },
    "kind": "user",
    "methods": {
      "addDNARecord(uint256,uint8,string)": {
        "notice": "Adds a record to a given property id"
      }
    },
    "notice": "It has been 20 years since I've coded, please excuse my rustiness",
    "version": 1
  }
}