{
  "contractName": "DNARental",
  "abi": [
    {
      "inputs": [],
      "stateMutability": "nonpayable",
      "type": "constructor"
    },
    {
      "anonymous": false,
      "inputs": [
        {
          "indexed": true,
          "internalType": "uint256",
          "name": "recordId",
          "type": "uint256"
        }
      ],
      "name": "LogDNARented",
      "type": "event"
    },
    {
      "anonymous": false,
      "inputs": [
        {
          "indexed": true,
          "internalType": "uint256",
          "name": "recordId",
          "type": "uint256"
        },
        {
          "indexed": false,
          "internalType": "string",
          "name": "uri",
          "type": "string"
        }
      ],
      "name": "LogRecordAdded",
      "type": "event"
    },
    {
      "anonymous": false,
      "inputs": [
        {
          "indexed": true,
          "internalType": "address",
          "name": "previousOwner",
          "type": "address"
        },
        {
          "indexed": true,
          "internalType": "address",
          "name": "newOwner",
          "type": "address"
        }
      ],
      "name": "OwnershipTransferred",
      "type": "event"
    },
    {
      "inputs": [],
      "name": "owner",
      "outputs": [
        {
          "internalType": "address",
          "name": "",
          "type": "address"
        }
      ],
      "stateMutability": "view",
      "type": "function",
      "constant": true
    },
    {
      "inputs": [],
      "name": "renounceOwnership",
      "outputs": [],
      "stateMutability": "nonpayable",
      "type": "function"
    },
    {
      "inputs": [
        {
          "internalType": "address",
          "name": "newOwner",
          "type": "address"
        }
      ],
      "name": "transferOwnership",
      "outputs": [],
      "stateMutability": "nonpayable",
      "type": "function"
    },
    {
      "inputs": [],
      "name": "getNumRecords",
      "outputs": [
        {
          "internalType": "uint256",
          "name": "",
          "type": "uint256"
        }
      ],
      "stateMutability": "view",
      "type": "function",
      "constant": true
    },
    {
      "inputs": [
        {
          "internalType": "uint256",
          "name": "_age",
          "type": "uint256"
        },
        {
          "internalType": "enum DNARental.Sex",
          "name": "_sex",
          "type": "uint8"
        },
        {
          "internalType": "string",
          "name": "_URI",
          "type": "string"
        }
      ],
      "name": "addDNARecord",
      "outputs": [
        {
          "internalType": "uint256",
          "name": "",
          "type": "uint256"
        }
      ],
      "stateMutability": "nonpayable",
      "type": "function"
    },
    {
      "inputs": [
        {
          "internalType": "uint256",
          "name": "_age",
          "type": "uint256"
        },
        {
          "internalType": "enum DNARental.Sex",
          "name": "_sex",
          "type": "uint8"
        }
      ],
      "name": "findDNARecord",
      "outputs": [
        {
          "internalType": "bool",
          "name": "",
          "type": "bool"
        },
        {
          "internalType": "uint256",
          "name": "",
          "type": "uint256"
        }
      ],
      "stateMutability": "view",
      "type": "function",
      "constant": true
    },
    {
      "inputs": [
        {
          "internalType": "uint256",
          "name": "recordId",
          "type": "uint256"
        }
      ],
      "name": "fetchDNARecord",
      "outputs": [
        {
          "internalType": "uint256",
          "name": "age",
          "type": "uint256"
        },
        {
          "internalType": "enum DNARental.Sex",
          "name": "sex",
          "type": "uint8"
        },
        {
          "internalType": "string",
          "name": "uri",
          "type": "string"
        }
      ],
      "stateMutability": "view",
      "type": "function",
      "constant": true
    },
    {
      "inputs": [
        {
          "internalType": "uint256",
          "name": "recordId",
          "type": "uint256"
        }
      ],
      "name": "rentDNARecord",
      "outputs": [],
      "stateMutability": "payable",
      "type": "function",
      "payable": true
    },
    {
      "inputs": [
        {
          "internalType": "uint256",
          "name": "price",
          "type": "uint256"
        }
      ],
      "name": "setDefaultPrice",
      "outputs": [],
      "stateMutability": "nonpayable",
      "type": "function"
    }
  ],
  "bytecode": "0x60806040526000600155600560025534801561001a57600080fd5b5061003761002c61003c60201b60201c565b61004460201b60201c565b610108565b600033905090565b60008060009054906101000a900473ffffffffffffffffffffffffffffffffffffffff169050816000806101000a81548173ffffffffffffffffffffffffffffffffffffffff021916908373ffffffffffffffffffffffffffffffffffffffff1602179055508173ffffffffffffffffffffffffffffffffffffffff168173ffffffffffffffffffffffffffffffffffffffff167f8be0079c531659141344cd1fd0a4f28419497f9722a3daafe3b4186f6b6457e060405160405180910390a35050565b611278806101176000396000f3fe6080604052600436106100865760003560e01c80638da5cb5b116100595780638da5cb5b146101355780638f7a2a0f14610160578063a686ec671461019e578063f2fde38b146101ba578063fad6c971146101e357610086565b80634527332a1461008b5780636d3c7ec5146100ca578063715018a6146100f35780638ba620171461010a575b600080fd5b34801561009757600080fd5b506100b260048036038101906100ad9190610be0565b610220565b6040516100c193929190610ee8565b60405180910390f35b3480156100d657600080fd5b506100f160048036038101906100ec9190610be0565b610353565b005b3480156100ff57600080fd5b506101086103d9565b005b34801561011657600080fd5b5061011f610461565b60405161012c9190610ecd565b60405180910390f35b34801561014157600080fd5b5061014a61046b565b6040516101579190610e07565b60405180910390f35b34801561016c57600080fd5b5061018760048036038101906101829190610c09565b610494565b604051610195929190610e22565b60405180910390f35b6101b860048036038101906101b39190610be0565b610597565b005b3480156101c657600080fd5b506101e160048036038101906101dc9190610bb7565b6106cd565b005b3480156101ef57600080fd5b5061020a60048036038101906102059190610c45565b6107c5565b6040516102179190610ecd565b60405180910390f35b60008060608360015481111561026b576040517f08c379a000000000000000000000000000000000000000000000000000000000815260040161026290610e8d565b60405180910390fd5b600360008681526020019081526020016000206001015493506003600086815260200190815260200160002060020160009054906101000a900460ff1692506003600086815260200190815260200160002060050180546102cb906110a8565b80601f01602080910402602001604051908101604052809291908181526020018280546102f7906110a8565b80156103445780601f1061031957610100808354040283529160200191610344565b820191906000526020600020905b81548152906001019060200180831161032757829003601f168201915b50505050509150509193909250565b61035b6109a1565b73ffffffffffffffffffffffffffffffffffffffff1661037961046b565b73ffffffffffffffffffffffffffffffffffffffff16146103cf576040517f08c379a00000000000000000000000000000000000000000000000000000000081526004016103c690610ead565b60405180910390fd5b8060028190555050565b6103e16109a1565b73ffffffffffffffffffffffffffffffffffffffff166103ff61046b565b73ffffffffffffffffffffffffffffffffffffffff1614610455576040517f08c379a000000000000000000000000000000000000000000000000000000000815260040161044c90610ead565b60405180910390fd5b61045f60006109a9565b565b6000600154905090565b60008060009054906101000a900473ffffffffffffffffffffffffffffffffffffffff16905090565b6000806000805b85600360008481526020019081526020016000206001015414801561055257508460018111156104f4577f4e487b7100000000000000000000000000000000000000000000000000000000600052602160045260246000fd5b6003600084815260200190815260200160002060020160009054906101000a900460ff166001811115610550577f4e487b7100000000000000000000000000000000000000000000000000000000600052602160045260246000fd5b145b15610560576001905061056f565b818061056b906110da565b9250505b60001515811515148015610584575060015482105b61049b5780829350935050509250929050565b806001548111156105dd576040517f08c379a00000000000000000000000000000000000000000000000000000000081526004016105d490610e8d565b60405180910390fd5b6003600083815260200190815260200160002060060160009054906101000a900473ffffffffffffffffffffffffffffffffffffffff1673ffffffffffffffffffffffffffffffffffffffff166108fc60036000858152602001908152602001600020600301549081150290604051600060405180830381858888f1935050505015801561066f573d6000803e3d6000fd5b50600360008381526020019081526020016000206004016000815480929190610697906110da565b9190505550817fc3d386407d74d075ed13b44ad4aa35ed80b97e78aebf5ef5d29c29bc091f2a2760405160405180910390a25050565b6106d56109a1565b73ffffffffffffffffffffffffffffffffffffffff166106f361046b565b73ffffffffffffffffffffffffffffffffffffffff1614610749576040517f08c379a000000000000000000000000000000000000000000000000000000000815260040161074090610ead565b60405180910390fd5b600073ffffffffffffffffffffffffffffffffffffffff168173ffffffffffffffffffffffffffffffffffffffff1614156107b9576040517f08c379a00000000000000000000000000000000000000000000000000000000081526004016107b090610e6d565b60405180910390fd5b6107c2816109a9565b50565b60006040518060e001604052806001548152602001858152602001846001811115610819577f4e487b7100000000000000000000000000000000000000000000000000000000600052602160045260246000fd5b81526020016002548152602001600081526020018381526020013373ffffffffffffffffffffffffffffffffffffffff16815250600360006001548152602001908152602001600020600082015181600001556020820151816001015560408201518160020160006101000a81548160ff021916908360018111156108c7577f4e487b7100000000000000000000000000000000000000000000000000000000600052602160045260246000fd5b0217905550606082015181600301556080820151816004015560a08201518160050190805190602001906108fc929190610a6d565b5060c08201518160060160006101000a81548173ffffffffffffffffffffffffffffffffffffffff021916908373ffffffffffffffffffffffffffffffffffffffff160217905550905050600180546109559190610fa3565b6001819055506001547fae8f71d6cf5eb0d25010d93ce012f47c183781d75f3d33a99ac1a548f2c0ea978360405161098d9190610e4b565b60405180910390a260015490509392505050565b600033905090565b60008060009054906101000a900473ffffffffffffffffffffffffffffffffffffffff169050816000806101000a81548173ffffffffffffffffffffffffffffffffffffffff021916908373ffffffffffffffffffffffffffffffffffffffff1602179055508173ffffffffffffffffffffffffffffffffffffffff168173ffffffffffffffffffffffffffffffffffffffff167f8be0079c531659141344cd1fd0a4f28419497f9722a3daafe3b4186f6b6457e060405160405180910390a35050565b828054610a79906110a8565b90600052602060002090601f016020900481019282610a9b5760008555610ae2565b82601f10610ab457805160ff1916838001178555610ae2565b82800160010185558215610ae2579182015b82811115610ae1578251825591602001919060010190610ac6565b5b509050610aef9190610af3565b5090565b5b80821115610b0c576000816000905550600101610af4565b5090565b6000610b23610b1e84610f57565b610f26565b905082815260208101848484011115610b3b57600080fd5b610b46848285611066565b509392505050565b600081359050610b5d81611204565b92915050565b600081359050610b728161121b565b92915050565b600082601f830112610b8957600080fd5b8135610b99848260208601610b10565b91505092915050565b600081359050610bb18161122b565b92915050565b600060208284031215610bc957600080fd5b6000610bd784828501610b4e565b91505092915050565b600060208284031215610bf257600080fd5b6000610c0084828501610ba2565b91505092915050565b60008060408385031215610c1c57600080fd5b6000610c2a85828601610ba2565b9250506020610c3b85828601610b63565b9150509250929050565b600080600060608486031215610c5a57600080fd5b6000610c6886828701610ba2565b9350506020610c7986828701610b63565b925050604084013567ffffffffffffffff811115610c9657600080fd5b610ca286828701610b78565b9150509250925092565b610cb581610ff9565b82525050565b610cc48161100b565b82525050565b610cd381611054565b82525050565b6000610ce482610f87565b610cee8185610f92565b9350610cfe818560208601611075565b610d07816111df565b840191505092915050565b6000610d1f602683610f92565b91507f4f776e61626c653a206e6577206f776e657220697320746865207a65726f206160008301527f64647265737300000000000000000000000000000000000000000000000000006020830152604082019050919050565b6000610d85601683610f92565b91507f5265636f726420646f6573206e6f742065786973742e000000000000000000006000830152602082019050919050565b6000610dc5602083610f92565b91507f4f776e61626c653a2063616c6c6572206973206e6f7420746865206f776e65726000830152602082019050919050565b610e018161104a565b82525050565b6000602082019050610e1c6000830184610cac565b92915050565b6000604082019050610e376000830185610cbb565b610e446020830184610df8565b9392505050565b60006020820190508181036000830152610e658184610cd9565b905092915050565b60006020820190508181036000830152610e8681610d12565b9050919050565b60006020820190508181036000830152610ea681610d78565b9050919050565b60006020820190508181036000830152610ec681610db8565b9050919050565b6000602082019050610ee26000830184610df8565b92915050565b6000606082019050610efd6000830186610df8565b610f0a6020830185610cca565b8181036040830152610f1c8184610cd9565b9050949350505050565b6000604051905081810181811067ffffffffffffffff82111715610f4d57610f4c6111b0565b5b8060405250919050565b600067ffffffffffffffff821115610f7257610f716111b0565b5b601f19601f8301169050602081019050919050565b600081519050919050565b600082825260208201905092915050565b6000610fae8261104a565b9150610fb98361104a565b9250827fffffffffffffffffffffffffffffffffffffffffffffffffffffffffffffffff03821115610fee57610fed611123565b5b828201905092915050565b60006110048261102a565b9050919050565b60008115159050919050565b6000819050611025826111f0565b919050565b600073ffffffffffffffffffffffffffffffffffffffff82169050919050565b6000819050919050565b600061105f82611017565b9050919050565b82818337600083830152505050565b60005b83811015611093578082015181840152602081019050611078565b838111156110a2576000848401525b50505050565b600060028204905060018216806110c057607f821691505b602082108114156110d4576110d3611181565b5b50919050565b60006110e58261104a565b91507fffffffffffffffffffffffffffffffffffffffffffffffffffffffffffffffff82141561111857611117611123565b5b600182019050919050565b7f4e487b7100000000000000000000000000000000000000000000000000000000600052601160045260246000fd5b7f4e487b7100000000000000000000000000000000000000000000000000000000600052602160045260246000fd5b7f4e487b7100000000000000000000000000000000000000000000000000000000600052602260045260246000fd5b7f4e487b7100000000000000000000000000000000000000000000000000000000600052604160045260246000fd5b6000601f19601f8301169050919050565b6002811061120157611200611152565b5b50565b61120d81610ff9565b811461121857600080fd5b50565b6002811061122857600080fd5b50565b6112348161104a565b811461123f57600080fd5b5056fea26469706673582212201894bb6eb87be59a08c571ca00200523f64485a1353629ef5e3b6a0fa232dc5264736f6c63430008000033",
  "immutableReferences": {},
  "source": "// SPDX-License-Identifier: MIT\r\npragma solidity >=0.5.0;\r\n\r\nimport \"@openzeppelin/contracts/access/Ownable.sol\";\r\n\r\n/// @title Contract for 'renting' DNA data\r\n/// @author Craig McQueen\r\n/// @notice Allows a users to publish their DNA data and someone else to purchase it.\r\n/// @dev It has been 20 years since I've coded, please excuse my rustiness\r\ncontract DNARental is Ownable {\r\n    \r\n    /// @notice Emmitted when a record is added.\r\n    /// @param recordId record id\r\n    event LogRecordAdded(uint indexed recordId, string uri);\r\n\r\n    /// @notice Emmitted when a record is rented.\r\n    /// @param recordId record id\r\n    event LogDNARented(uint indexed recordId);\r\n\r\n    // Enum for sex of the person DNA belongs to.\r\n    enum Sex { MALE, FEMALE } \r\n\r\n    struct DNARecord {\r\n        uint    recordId;\r\n        uint    age;\r\n        Sex     sex;\r\n        uint    price;\r\n        uint    numRentals;\r\n        string  URI;\r\n        address payable owner;\r\n        }\r\n\r\n    uint    recordCounter = 0;\r\n    uint    defaultPrice = 5;\r\n\r\n    mapping(uint => DNARecord) internal dnaInventory;\r\n\r\n    modifier onlyIfRecordExists(uint recordId) {\r\n    require( recordId <= recordCounter, \r\n        \"Record does not exist.\");\r\n    _;\r\n  }\r\n\r\n    constructor()  {\r\n    }\r\n\r\n    /// @notice Returns the number of records.\r\n    function getNumRecords( )\r\n    public view returns(uint) {\r\n            return recordCounter;\r\n        }\r\n\r\n    /// @notice Adds a record to the DNA inventory. \r\n    /// @param _age Age of the person for the dna record.\r\n    /// @param _sex Sex of the person for the dna record.\r\n    /// @param _URI Location of the DNA record.\r\n    /// @dev For simplicity all DNA is worth the same and hard-coded for price.\r\n    function addDNARecord( uint _age, Sex _sex, \r\n        string memory _URI \r\n        ) \r\n    public returns (uint) {\r\n        \r\n        dnaInventory[recordCounter] = DNARecord({\r\n            recordId:   recordCounter,\r\n            age: _age,\r\n            sex: _sex,\r\n            price: defaultPrice,\r\n            numRentals: 0,\r\n            URI: _URI,\r\n            owner: payable(msg.sender)\r\n        });\r\n\r\n        recordCounter = recordCounter + 1;\r\n\r\n        emit LogRecordAdded(recordCounter, _URI); \r\n        return recordCounter;\r\n    }\r\n\r\n    /// @notice Finds a record that matches the age and sex.\r\n    /// @param _age Age to match for record.\r\n    /// @param _sex Sex to march for record.\r\n    function findDNARecord( uint _age, Sex _sex )\r\n    public view returns (bool, uint) {\r\n        uint    i = 0;\r\n        bool    found = false;\r\n\r\n        do {\r\n            if ( dnaInventory[i].age == _age && dnaInventory[i].sex == _sex ) {\r\n                found = true;\r\n            }\r\n            else {\r\n                i++;\r\n            }\r\n        } while (found == false && i < recordCounter);\r\n\r\n        return( found, i );\r\n    }\r\n\r\n    /// @notice Fetch a record based on the id.\r\n    /// @param recordId The id of the DNA record to fetch.\r\n     function fetchDNARecord( uint recordId ) public view\r\n    onlyIfRecordExists(recordId)  \r\n    returns ( uint age, Sex sex, string memory uri) {\r\n        age = dnaInventory[recordId].age;\r\n        sex = dnaInventory[recordId].sex;\r\n        uri = dnaInventory[recordId].URI;\r\n        return (age, sex, uri );\r\n    } \r\n\r\n    /// @notice Rent a DNA record.\r\n    /// @param recordId The id of the DNA record to rent.\r\n    function rentDNARecord( uint recordId ) public payable onlyIfRecordExists( recordId ) {\r\n\r\n        dnaInventory[recordId].owner.transfer(dnaInventory[recordId].price);\r\n        dnaInventory[recordId].numRentals++;\r\n        // TODO - need to track addresses that rented the DNA\r\n        emit LogDNARented( recordId );\r\n    }\r\n\r\n    /// @notice Set inital price.\r\n    /// @param price The default price of DNA records.\r\n    /// @dev Will only be used for records added after price set. Only contract owner can all this.\r\n    function setDefaultPrice( uint price ) public onlyOwner {\r\n        defaultPrice = price;\r\n    }\r\n}",
  "sourcePath": "C:\\Users\\craig\\projects\\blockchain-developer-bootcamp-final-project\\contracts\\DNARental.sol",
  "compiler": {
    "name": "solc",
    "version": "0.8.0+commit.c7dfd78e.Emscripten.clang"
  },
  "schemaVersion": "3.4.3",
  "updatedAt": "2021-11-27T19:14:39.032Z",
  "networkType": "ethereum",
  "devdoc": {
    "author": "Craig McQueen",
    "details": "It has been 20 years since I've coded, please excuse my rustiness",
    "events": {
      "LogDNARented(uint256)": {
        "params": {
          "recordId": "record id"
        }
      },
      "LogRecordAdded(uint256,string)": {
        "params": {
          "recordId": "record id"
        }
      }
    },
    "kind": "dev",
    "methods": {
      "addDNARecord(uint256,uint8,string)": {
        "details": "For simplicity all DNA is worth the same and hard-coded for price.",
        "params": {
          "_URI": "Location of the DNA record.",
          "_age": "Age of the person for the dna record.",
          "_sex": "Sex of the person for the dna record."
        }
      },
      "fetchDNARecord(uint256)": {
        "params": {
          "recordId": "The id of the DNA record to fetch."
        }
      },
      "findDNARecord(uint256,uint8)": {
        "params": {
          "_age": "Age to match for record.",
          "_sex": "Sex to march for record."
        }
      },
      "owner()": {
        "details": "Returns the address of the current owner."
      },
      "renounceOwnership()": {
        "details": "Leaves the contract without owner. It will not be possible to call `onlyOwner` functions anymore. Can only be called by the current owner. NOTE: Renouncing ownership will leave the contract without an owner, thereby removing any functionality that is only available to the owner."
      },
      "rentDNARecord(uint256)": {
        "params": {
          "recordId": "The id of the DNA record to rent."
        }
      },
      "setDefaultPrice(uint256)": {
        "details": "Will only be used for records added after price set. Only contract owner can all this.",
        "params": {
          "price": "The default price of DNA records."
        }
      },
      "transferOwnership(address)": {
        "details": "Transfers ownership of the contract to a new account (`newOwner`). Can only be called by the current owner."
      }
    },
    "title": "Contract for 'renting' DNA data",
    "version": 1
  },
  "userdoc": {
    "events": {
      "LogDNARented(uint256)": {
        "notice": "Emmitted when a record is rented."
      },
      "LogRecordAdded(uint256,string)": {
        "notice": "Emmitted when a record is added."
      }
    },
    "kind": "user",
    "methods": {
      "addDNARecord(uint256,uint8,string)": {
        "notice": "Adds a record to the DNA inventory. "
      },
      "fetchDNARecord(uint256)": {
        "notice": "Fetch a record based on the id."
      },
      "findDNARecord(uint256,uint8)": {
        "notice": "Finds a record that matches the age and sex."
      },
      "getNumRecords()": {
        "notice": "Returns the number of records."
      },
      "rentDNARecord(uint256)": {
        "notice": "Rent a DNA record."
      },
      "setDefaultPrice(uint256)": {
        "notice": "Set inital price."
      }
    },
    "notice": "Allows a users to publish their DNA data and someone else to purchase it.",
    "version": 1
  }
}